{
  "contractName": "SupplyChain",
  "abi": [
    {
      "inputs": [],
      "stateMutability": "payable",
      "type": "constructor"
    },
    {
      "anonymous": false,
      "inputs": [
        {
          "indexed": true,
          "internalType": "address",
          "name": "id",
          "type": "address"
        }
      ],
      "name": "ConsumerAdded",
      "type": "event"
    },
    {
      "anonymous": false,
      "inputs": [
        {
          "indexed": true,
          "internalType": "address",
          "name": "id",
          "type": "address"
        }
      ],
      "name": "ConsumerRemoved",
      "type": "event"
    },
    {
      "anonymous": false,
      "inputs": [
        {
          "indexed": true,
          "internalType": "address",
          "name": "account",
          "type": "address"
        }
      ],
      "name": "DistributorAdded",
      "type": "event"
    },
    {
      "anonymous": false,
      "inputs": [
        {
          "indexed": true,
          "internalType": "address",
          "name": "account",
          "type": "address"
        }
      ],
      "name": "DistributorRemoved",
      "type": "event"
    },
    {
      "anonymous": false,
      "inputs": [
        {
          "indexed": true,
          "internalType": "address",
          "name": "account",
          "type": "address"
        }
      ],
      "name": "FarmerAdded",
      "type": "event"
    },
    {
      "anonymous": false,
      "inputs": [
        {
          "indexed": true,
          "internalType": "address",
          "name": "account",
          "type": "address"
        }
      ],
      "name": "FarmerRemoved",
      "type": "event"
    },
    {
      "anonymous": false,
      "inputs": [
        {
          "indexed": false,
          "internalType": "uint256",
          "name": "upc",
          "type": "uint256"
        }
      ],
      "name": "ForSale",
      "type": "event"
    },
    {
      "anonymous": false,
      "inputs": [
        {
          "indexed": false,
          "internalType": "uint256",
          "name": "upc",
          "type": "uint256"
        }
      ],
      "name": "Harvested",
      "type": "event"
    },
    {
      "anonymous": false,
      "inputs": [
        {
          "indexed": false,
          "internalType": "uint256",
          "name": "upc",
          "type": "uint256"
        }
      ],
      "name": "Packed",
      "type": "event"
    },
    {
      "anonymous": false,
      "inputs": [
        {
          "indexed": false,
          "internalType": "uint256",
          "name": "upc",
          "type": "uint256"
        }
      ],
      "name": "Processed",
      "type": "event"
    },
    {
      "anonymous": false,
      "inputs": [
        {
          "indexed": false,
          "internalType": "uint256",
          "name": "upc",
          "type": "uint256"
        }
      ],
      "name": "Purchased",
      "type": "event"
    },
    {
      "anonymous": false,
      "inputs": [
        {
          "indexed": false,
          "internalType": "uint256",
          "name": "upc",
          "type": "uint256"
        }
      ],
      "name": "Received",
      "type": "event"
    },
    {
      "anonymous": false,
      "inputs": [
        {
          "indexed": true,
          "internalType": "address",
          "name": "account",
          "type": "address"
        }
      ],
      "name": "RetailerAdded",
      "type": "event"
    },
    {
      "anonymous": false,
      "inputs": [
        {
          "indexed": true,
          "internalType": "address",
          "name": "account",
          "type": "address"
        }
      ],
      "name": "RetailerRemoved",
      "type": "event"
    },
    {
      "anonymous": false,
      "inputs": [
        {
          "indexed": false,
          "internalType": "uint256",
          "name": "upc",
          "type": "uint256"
        }
      ],
      "name": "Shipped",
      "type": "event"
    },
    {
      "anonymous": false,
      "inputs": [
        {
          "indexed": false,
          "internalType": "uint256",
          "name": "upc",
          "type": "uint256"
        },
        {
          "indexed": false,
          "internalType": "uint256",
          "name": "price",
          "type": "uint256"
        }
      ],
      "name": "Sold",
      "type": "event"
    },
    {
      "anonymous": false,
      "inputs": [
        {
          "indexed": true,
          "internalType": "address",
          "name": "oldOwner",
          "type": "address"
        },
        {
          "indexed": true,
          "internalType": "address",
          "name": "newOwner",
          "type": "address"
        }
      ],
      "name": "TransferOwnership",
      "type": "event"
    },
    {
      "inputs": [
        {
          "internalType": "address",
          "name": "account",
          "type": "address"
        }
      ],
      "name": "addConsumer",
      "outputs": [],
      "stateMutability": "nonpayable",
      "type": "function"
    },
    {
      "inputs": [
        {
          "internalType": "address",
          "name": "account",
          "type": "address"
        }
      ],
      "name": "addDistributor",
      "outputs": [],
      "stateMutability": "nonpayable",
      "type": "function"
    },
    {
      "inputs": [
        {
          "internalType": "address",
          "name": "account",
          "type": "address"
        }
      ],
      "name": "addFarmer",
      "outputs": [],
      "stateMutability": "nonpayable",
      "type": "function"
    },
    {
      "inputs": [
        {
          "internalType": "address",
          "name": "account",
          "type": "address"
        }
      ],
      "name": "addRetailer",
      "outputs": [],
      "stateMutability": "nonpayable",
      "type": "function"
    },
    {
      "inputs": [
        {
          "internalType": "address",
          "name": "account",
          "type": "address"
        }
      ],
      "name": "isConsumer",
      "outputs": [
        {
          "internalType": "bool",
          "name": "",
          "type": "bool"
        }
      ],
      "stateMutability": "view",
      "type": "function"
    },
    {
      "inputs": [
        {
          "internalType": "address",
          "name": "account",
          "type": "address"
        }
      ],
      "name": "isDistributor",
      "outputs": [
        {
          "internalType": "bool",
          "name": "",
          "type": "bool"
        }
      ],
      "stateMutability": "view",
      "type": "function"
    },
    {
      "inputs": [
        {
          "internalType": "address",
          "name": "account",
          "type": "address"
        }
      ],
      "name": "isFarmer",
      "outputs": [
        {
          "internalType": "bool",
          "name": "",
          "type": "bool"
        }
      ],
      "stateMutability": "view",
      "type": "function"
    },
    {
      "inputs": [],
      "name": "isOwner",
      "outputs": [
        {
          "internalType": "bool",
          "name": "",
          "type": "bool"
        }
      ],
      "stateMutability": "view",
      "type": "function"
    },
    {
      "inputs": [
        {
          "internalType": "address",
          "name": "account",
          "type": "address"
        }
      ],
      "name": "isRetailer",
      "outputs": [
        {
          "internalType": "bool",
          "name": "",
          "type": "bool"
        }
      ],
      "stateMutability": "view",
      "type": "function"
    },
    {
      "inputs": [],
      "name": "owner",
      "outputs": [
        {
          "internalType": "address",
          "name": "",
          "type": "address"
        }
      ],
      "stateMutability": "view",
      "type": "function"
    },
    {
      "inputs": [],
      "name": "renounceConsumer",
      "outputs": [],
      "stateMutability": "nonpayable",
      "type": "function"
    },
    {
      "inputs": [],
      "name": "renounceDistributor",
      "outputs": [],
      "stateMutability": "nonpayable",
      "type": "function"
    },
    {
      "inputs": [],
      "name": "renounceFarmer",
      "outputs": [],
      "stateMutability": "nonpayable",
      "type": "function"
    },
    {
      "inputs": [],
      "name": "renounceOwnership",
      "outputs": [],
      "stateMutability": "nonpayable",
      "type": "function"
    },
    {
      "inputs": [],
      "name": "renounceRetailer",
      "outputs": [],
      "stateMutability": "nonpayable",
      "type": "function"
    },
    {
      "inputs": [
        {
          "internalType": "address",
          "name": "newOwner",
          "type": "address"
        }
      ],
      "name": "transferOwnership",
      "outputs": [],
      "stateMutability": "nonpayable",
      "type": "function"
    },
    {
      "inputs": [
        {
          "internalType": "uint256",
          "name": "_upc",
          "type": "uint256"
        },
        {
          "internalType": "address",
          "name": "_originFarmerID",
          "type": "address"
        },
        {
          "internalType": "string",
          "name": "_originFarmName",
          "type": "string"
        },
        {
          "internalType": "string",
          "name": "_originFarmInformation",
          "type": "string"
        },
        {
          "internalType": "string",
          "name": "_originFarmLatitude",
          "type": "string"
        },
        {
          "internalType": "string",
          "name": "_originFarmLongitude",
          "type": "string"
        },
        {
          "internalType": "string",
          "name": "_productNotes",
          "type": "string"
        }
      ],
      "name": "harvestItem",
      "outputs": [],
      "stateMutability": "nonpayable",
      "type": "function"
    },
    {
      "inputs": [
        {
          "internalType": "uint256",
          "name": "_upc",
          "type": "uint256"
        }
      ],
      "name": "processItem",
      "outputs": [],
      "stateMutability": "nonpayable",
      "type": "function"
    },
    {
      "inputs": [
        {
          "internalType": "uint256",
          "name": "_upc",
          "type": "uint256"
        }
      ],
      "name": "packItem",
      "outputs": [],
      "stateMutability": "nonpayable",
      "type": "function"
    },
    {
      "inputs": [
        {
          "internalType": "uint256",
          "name": "_upc",
          "type": "uint256"
        },
        {
          "internalType": "uint256",
          "name": "_price",
          "type": "uint256"
        }
      ],
      "name": "sellItem",
      "outputs": [],
      "stateMutability": "nonpayable",
      "type": "function"
    },
    {
      "inputs": [
        {
          "internalType": "uint256",
          "name": "_upc",
          "type": "uint256"
        }
      ],
      "name": "buyItem",
      "outputs": [],
      "stateMutability": "payable",
      "type": "function"
    },
    {
      "inputs": [
        {
          "internalType": "uint256",
          "name": "_upc",
          "type": "uint256"
        }
      ],
      "name": "shipItem",
      "outputs": [],
      "stateMutability": "nonpayable",
      "type": "function"
    },
    {
      "inputs": [
        {
          "internalType": "uint256",
          "name": "_upc",
          "type": "uint256"
        }
      ],
      "name": "receiveItem",
      "outputs": [],
      "stateMutability": "nonpayable",
      "type": "function"
    },
    {
      "inputs": [
        {
          "internalType": "uint256",
          "name": "_upc",
          "type": "uint256"
        }
      ],
      "name": "purchaseItem",
      "outputs": [],
      "stateMutability": "nonpayable",
      "type": "function"
    },
    {
      "inputs": [
        {
          "internalType": "uint256",
          "name": "_upc",
          "type": "uint256"
        }
      ],
      "name": "fetchItemBufferOne",
      "outputs": [
        {
          "internalType": "uint256",
          "name": "itemSKU",
          "type": "uint256"
        },
        {
          "internalType": "uint256",
          "name": "itemUPC",
          "type": "uint256"
        },
        {
          "internalType": "address",
          "name": "ownerID",
          "type": "address"
        },
        {
          "internalType": "address",
          "name": "originFarmerID",
          "type": "address"
        },
        {
          "internalType": "string",
          "name": "originFarmName",
          "type": "string"
        },
        {
          "internalType": "string",
          "name": "originFarmInformation",
          "type": "string"
        },
        {
          "internalType": "string",
          "name": "originFarmLatitude",
          "type": "string"
        },
        {
          "internalType": "string",
          "name": "originFarmLongitude",
          "type": "string"
        }
      ],
      "stateMutability": "view",
      "type": "function"
    },
    {
      "inputs": [
        {
          "internalType": "uint256",
          "name": "_upc",
          "type": "uint256"
        }
      ],
      "name": "fetchItemBufferTwo",
      "outputs": [
        {
          "internalType": "uint256",
          "name": "itemSKU",
          "type": "uint256"
        },
        {
          "internalType": "uint256",
          "name": "itemUPC",
          "type": "uint256"
        },
        {
          "internalType": "uint256",
          "name": "productID",
          "type": "uint256"
        },
        {
          "internalType": "string",
          "name": "productNotes",
          "type": "string"
        },
        {
          "internalType": "uint256",
          "name": "productPrice",
          "type": "uint256"
        },
        {
          "internalType": "uint256",
          "name": "itemState",
          "type": "uint256"
        },
        {
          "internalType": "address",
          "name": "distributorID",
          "type": "address"
        },
        {
          "internalType": "address",
          "name": "retailerID",
          "type": "address"
        },
        {
          "internalType": "address",
          "name": "consumerID",
          "type": "address"
        }
      ],
      "stateMutability": "view",
      "type": "function"
    }
  ],
  "bytecode": "0x6080604052335f806101000a81548173ffffffffffffffffffffffffffffffffffffffff021916908373ffffffffffffffffffffffffffffffffffffffff1602179055505f8054906101000a900473ffffffffffffffffffffffffffffffffffffffff1673ffffffffffffffffffffffffffffffffffffffff165f73ffffffffffffffffffffffffffffffffffffffff167f5c486528ec3e3f0ea91181cff8116f02bfa350e03b8b6f12e00765adbb5af85c60405160405180910390a3620000cd336200011660201b60201c565b620000de336200017260201b60201c565b620000ef33620001ce60201b60201c565b62000100336200022a60201b60201c565b60016006819055506001600581905550620003c0565b6200012c8160016200028660201b90919060201c565b3373ffffffffffffffffffffffffffffffffffffffff167f28b26e7a3d20aedbc5f8f2ebf7da671c0491723a2b78f47a097b0e46dee0714260405160405180910390a250565b620001888160026200028660201b90919060201c565b8073ffffffffffffffffffffffffffffffffffffffff167fddbf200aa634dc3fb81cfd68583dd1040d1c751d335e1d86b631bde3e977fea860405160405180910390a250565b620001e48160036200028660201b90919060201c565b8073ffffffffffffffffffffffffffffffffffffffff167f2e0ded4123377a3c2bc9a26f1717655a129e2f20752924d42e730ec89c83dbd060405160405180910390a250565b620002408160046200028660201b90919060201c565b8073ffffffffffffffffffffffffffffffffffffffff167f71ae26cad02663e3d92efd6ec56031a80d74a20c0ab4183faa8bf262261c9baa60405160405180910390a250565b5f73ffffffffffffffffffffffffffffffffffffffff168173ffffffffffffffffffffffffffffffffffffffff1603620002be575f80fd5b620002d082826200033460201b60201c565b15620002da575f80fd5b6001825f015f8373ffffffffffffffffffffffffffffffffffffffff1673ffffffffffffffffffffffffffffffffffffffff1681526020019081526020015f205f6101000a81548160ff0219169083151502179055505050565b5f8073ffffffffffffffffffffffffffffffffffffffff168273ffffffffffffffffffffffffffffffffffffffff16036200036d575f80fd5b825f015f8373ffffffffffffffffffffffffffffffffffffffff1673ffffffffffffffffffffffffffffffffffffffff1681526020019081526020015f205f9054906101000a900460ff16905092915050565b6128b080620003ce5f395ff3fe608060405260043610610180575f3560e01c80638da5cb5b116100d0578063bdd8a6a811610089578063e7fb74c711610063578063e7fb74c714610525578063f2fde38b14610541578063f30fc48014610569578063f61c899a1461059157610180565b8063bdd8a6a8146104bf578063d38ea5bf146104e7578063db0e6a2f1461050f57610180565b80638da5cb5b146103a35780638ec4f505146103cd5780638f0c86fa146103f55780638f32d59b14610431578063a26be9991461045b578063b94290691461048357610180565b806366225ff91161013d57806377c459131161011757806377c45913146102e657806380c3f96d1461032957806380fc0ce414610351578063834ff7391461036757610180565b806366225ff914610264578063715018a6146102a85780637250e224146102be57610180565b8063112940f9146101845780632d923561146101ac57806349dae766146101d45780635da09b88146101fc57806361e6982d14610238578063644241db1461024e575b5f80fd5b34801561018f575f80fd5b506101aa60048036038101906101a59190611f0f565b6105b9565b005b3480156101b7575f80fd5b506101d260048036038101906101cd9190611f6d565b61060d565b005b3480156101df575f80fd5b506101fa60048036038101906101f59190611fab565b610700565b005b348015610207575f80fd5b50610222600480360381019061021d9190611f0f565b6107d8565b60405161022f9190611ff0565b60405180910390f35b348015610243575f80fd5b5061024c6107f4565b005b348015610259575f80fd5b506102626107ff565b005b34801561026f575f80fd5b5061028a60048036038101906102859190611fab565b61080a565b60405161029f999897969594939291906120b1565b60405180910390f35b3480156102b3575f80fd5b506102bc6109f1565b005b3480156102c9575f80fd5b506102e460048036038101906102df9190611f0f565b610abb565b005b3480156102f1575f80fd5b5061030c60048036038101906103079190611fab565b610ad8565b604051610320989796959493929190612143565b60405180910390f35b348015610334575f80fd5b5061034f600480360381019061034a9190611f0f565b610dfa565b005b34801561035c575f80fd5b50610365610e17565b005b348015610372575f80fd5b5061038d60048036038101906103889190611f0f565b610e22565b60405161039a9190611ff0565b60405180910390f35b3480156103ae575f80fd5b506103b7610e35565b6040516103c491906121db565b60405180910390f35b3480156103d8575f80fd5b506103f360048036038101906103ee9190611f0f565b610e5c565b005b348015610400575f80fd5b5061041b60048036038101906104169190611f0f565b610e79565b6040516104289190611ff0565b60405180910390f35b34801561043c575f80fd5b50610445610e95565b6040516104529190611ff0565b60405180910390f35b348015610466575f80fd5b50610481600480360381019061047c9190611fab565b610eea565b005b34801561048e575f80fd5b506104a960048036038101906104a49190611f0f565b611067565b6040516104b69190611ff0565b60405180910390f35b3480156104ca575f80fd5b506104e560048036038101906104e09190612320565b611083565b005b3480156104f2575f80fd5b5061050d60048036038101906105089190611fab565b6112cb565b005b34801561051a575f80fd5b5061052361147e565b005b61053f600480360381019061053a9190611fab565b611489565b005b34801561054c575f80fd5b5061056760048036038101906105629190611f0f565b611743565b005b348015610574575f80fd5b5061058f600480360381019061058a9190611fab565b61175f565b005b34801561059c575f80fd5b506105b760048036038101906105b29190611fab565b611838565b005b6105c233610e22565b610601576040517f08c379a00000000000000000000000000000000000000000000000000000000081526004016105f890612493565b60405180910390fd5b61060a81611911565b50565b8160026007811115610622576106216124b1565b5b60075f8381526020019081526020015f20600b015f9054906101000a900460ff166007811115610655576106546124b1565b5b1461065e575f80fd5b61066733611067565b61066f575f80fd5b8160075f8581526020019081526020015f20600a0181905550600360075f8581526020019081526020015f20600b015f6101000a81548160ff021916908360078111156106bf576106be6124b1565b5b02179055507fa96ae0fc3224ebd79eebfe54bd130cc9cb94416cddd1f2386115e00b72532468836040516106f391906124de565b60405180910390a1505050565b805f6007811115610714576107136124b1565b5b60075f8381526020019081526020015f20600b015f9054906101000a900460ff166007811115610747576107466124b1565b5b14610750575f80fd5b61075933611067565b610761575f80fd5b600160075f8481526020019081526020015f20600b015f6101000a81548160ff02191690836007811115610798576107976124b1565b5b02179055507f5afe3b1bf87069693c075da5c22a98d63d1aef98a30dbbe538d0781a98b77ee5826040516107cc91906124de565b60405180910390a15050565b5f6107ed82600461196b90919063ffffffff16565b9050919050565b6107fd336119f6565b565b61080833611a50565b565b5f805f60605f805f805f60075f8b81526020019081526020015f205f0154985060075f8b81526020019081526020015f2060010154975060075f8b81526020019081526020015f2060080154965060075f8b81526020019081526020015f20600901805461087790612524565b80601f01602080910402602001604051908101604052809291908181526020018280546108a390612524565b80156108ee5780601f106108c5576101008083540402835291602001916108ee565b820191905f5260205f20905b8154815290600101906020018083116108d157829003601f168201915b5050505050955060075f8b81526020019081526020015f20600a0154945060075f8b81526020019081526020015f20600b015f9054906101000a900460ff16600781111561093f5761093e6124b1565b5b935060075f8b81526020019081526020015f20600b0160019054906101000a900473ffffffffffffffffffffffffffffffffffffffff16925060075f8b81526020019081526020015f20600c015f9054906101000a900473ffffffffffffffffffffffffffffffffffffffff16915060075f8b81526020019081526020015f20600d015f9054906101000a900473ffffffffffffffffffffffffffffffffffffffff1690509193959799909294969850565b6109f9610e95565b610a01575f80fd5b5f73ffffffffffffffffffffffffffffffffffffffff165f8054906101000a900473ffffffffffffffffffffffffffffffffffffffff1673ffffffffffffffffffffffffffffffffffffffff167f5c486528ec3e3f0ea91181cff8116f02bfa350e03b8b6f12e00765adbb5af85c60405160405180910390a35f805f6101000a81548173ffffffffffffffffffffffffffffffffffffffff021916908373ffffffffffffffffffffffffffffffffffffffff160217905550565b610ac433610e79565b610acc575f80fd5b610ad581611aaa565b50565b5f805f8060608060608060075f8a81526020019081526020015f205f0154975060075f8a81526020019081526020015f2060010154965060075f8a81526020019081526020015f206002015f9054906101000a900473ffffffffffffffffffffffffffffffffffffffff16955060075f8a81526020019081526020015f206003015f9054906101000a900473ffffffffffffffffffffffffffffffffffffffff16945060075f8a81526020019081526020015f206004018054610b9a90612524565b80601f0160208091040260200160405190810160405280929190818152602001828054610bc690612524565b8015610c115780601f10610be857610100808354040283529160200191610c11565b820191905f5260205f20905b815481529060010190602001808311610bf457829003601f168201915b5050505050935060075f8a81526020019081526020015f206005018054610c3790612524565b80601f0160208091040260200160405190810160405280929190818152602001828054610c6390612524565b8015610cae5780601f10610c8557610100808354040283529160200191610cae565b820191905f5260205f20905b815481529060010190602001808311610c9157829003601f168201915b5050505050925060075f8a81526020019081526020015f206006018054610cd490612524565b80601f0160208091040260200160405190810160405280929190818152602001828054610d0090612524565b8015610d4b5780601f10610d2257610100808354040283529160200191610d4b565b820191905f5260205f20905b815481529060010190602001808311610d2e57829003601f168201915b5050505050915060075f8a81526020019081526020015f206007018054610d7190612524565b80601f0160208091040260200160405190810160405280929190818152602001828054610d9d90612524565b8015610de85780601f10610dbf57610100808354040283529160200191610de8565b820191905f5260205f20905b815481529060010190602001808311610dcb57829003601f168201915b50505050509050919395975091939597565b610e0333611067565b610e0b575f80fd5b610e1481611b04565b50565b610e2033611b5e565b565b5f610e2e60018361196b565b9050919050565b5f805f9054906101000a900473ffffffffffffffffffffffffffffffffffffffff16905090565b610e65336107d8565b610e6d575f80fd5b610e7681611bb8565b50565b5f610e8e82600261196b90919063ffffffff16565b9050919050565b5f805f9054906101000a900473ffffffffffffffffffffffffffffffffffffffff1673ffffffffffffffffffffffffffffffffffffffff163373ffffffffffffffffffffffffffffffffffffffff1614905090565b8060056007811115610eff57610efe6124b1565b5b60075f8381526020019081526020015f20600b015f9054906101000a900460ff166007811115610f3257610f316124b1565b5b14610f3b575f80fd5b610f44336107d8565b610f4c575f80fd5b3360075f8481526020019081526020015f206002015f6101000a81548173ffffffffffffffffffffffffffffffffffffffff021916908373ffffffffffffffffffffffffffffffffffffffff1602179055503360075f8481526020019081526020015f20600c015f6101000a81548173ffffffffffffffffffffffffffffffffffffffff021916908373ffffffffffffffffffffffffffffffffffffffff160217905550600660075f8481526020019081526020015f20600b015f6101000a81548160ff02191690836007811115611027576110266124b1565b5b02179055507fa8142743f8f70a4c26f3691cf4ed59718381fb2f18070ec52be1f1022d8555578260405161105b91906124de565b60405180910390a15050565b5f61107c82600361196b90919063ffffffff16565b9050919050565b61108c33611067565b611094575f80fd5b8660075f8981526020019081526020015f206001018190555060065460075f8981526020019081526020015f205f0181905550600654876110d59190612581565b60075f8981526020019081526020015f20600801819055508560075f8981526020019081526020015f206002015f6101000a81548173ffffffffffffffffffffffffffffffffffffffff021916908373ffffffffffffffffffffffffffffffffffffffff1602179055508560075f8981526020019081526020015f206003015f6101000a81548173ffffffffffffffffffffffffffffffffffffffff021916908373ffffffffffffffffffffffffffffffffffffffff1602179055508460075f8981526020019081526020015f2060040190816111b29190612751565b508360075f8981526020019081526020015f2060050190816111d49190612751565b508260075f8981526020019081526020015f2060060190816111f69190612751565b508160075f8981526020019081526020015f2060070190816112189190612751565b508060075f8981526020019081526020015f20600901908161123a9190612751565b505f60075f8981526020019081526020015f20600b015f6101000a81548160ff02191690836007811115611271576112706124b1565b5b021790555060016006546112859190612581565b6006819055507f8e55ccfc9778ff8eba1646d765cf1982537ce0f9257054a17b48aad745250183876040516112ba91906124de565b60405180910390a150505050505050565b80600660078111156112e0576112df6124b1565b5b60075f8381526020019081526020015f20600b015f9054906101000a900460ff166007811115611313576113126124b1565b5b1461131c575f80fd5b61132533610e22565b611364576040517f08c379a000000000000000000000000000000000000000000000000000000000815260040161135b90612493565b60405180910390fd5b3360075f8481526020019081526020015f206002015f6101000a81548173ffffffffffffffffffffffffffffffffffffffff021916908373ffffffffffffffffffffffffffffffffffffffff1602179055503360075f8481526020019081526020015f20600d015f6101000a81548173ffffffffffffffffffffffffffffffffffffffff021916908373ffffffffffffffffffffffffffffffffffffffff1602179055506007805f8481526020019081526020015f20600b015f6101000a81548160ff0219169083600781111561143e5761143d6124b1565b5b02179055507f653d56639fee6b566a5c804764e9689de38645f0b733df89a36a1b7b42173dd88260405161147291906124de565b60405180910390a15050565b61148733611c12565b565b806003600781111561149e5761149d6124b1565b5b60075f8381526020019081526020015f20600b015f9054906101000a900460ff1660078111156114d1576114d06124b1565b5b146114da575f80fd5b60075f8381526020019081526020015f20600a0154803410156114fb575f80fd5b8261150533610e79565b61150d575f80fd5b5f60075f8681526020019081526020015f206003015f9054906101000a900473ffffffffffffffffffffffffffffffffffffffff1690503360075f8781526020019081526020015f206002015f6101000a81548173ffffffffffffffffffffffffffffffffffffffff021916908373ffffffffffffffffffffffffffffffffffffffff1602179055503360075f8781526020019081526020015f20600b0160016101000a81548173ffffffffffffffffffffffffffffffffffffffff021916908373ffffffffffffffffffffffffffffffffffffffff160217905550600460075f8781526020019081526020015f20600b015f6101000a81548160ff021916908360078111156116205761161f6124b1565b5b02179055508073ffffffffffffffffffffffffffffffffffffffff166108fc60075f8881526020019081526020015f20600a015490811502906040515f60405180830381858888f1935050505015801561167c573d5f803e3d5ffd5b507f7ea63cabf285309a7f2750def3e745dd81fc85e39926c5b47f0bd45938e1a4128560075f8881526020019081526020015f20600a01546040516116c2929190612820565b60405180910390a1505f60075f8381526020019081526020015f20600a015490505f81346116f09190612847565b90505f3390508073ffffffffffffffffffffffffffffffffffffffff166108fc8390811502906040515f60405180830381858888f19350505050158015611739573d5f803e3d5ffd5b5050505050505050565b61174b610e95565b611753575f80fd5b61175c81611c6c565b50565b8060016007811115611774576117736124b1565b5b60075f8381526020019081526020015f20600b015f9054906101000a900460ff1660078111156117a7576117a66124b1565b5b146117b0575f80fd5b6117b933611067565b6117c1575f80fd5b600260075f8481526020019081526020015f20600b015f6101000a81548160ff021916908360078111156117f8576117f76124b1565b5b02179055507f9b3b66e2380b690bae22c73ef1428fb0c91e72fe14a4b6defa13035214187aff8260405161182c91906124de565b60405180910390a15050565b61184133610e79565b611849575f80fd5b806004600781111561185e5761185d6124b1565b5b60075f8381526020019081526020015f20600b015f9054906101000a900460ff166007811115611891576118906124b1565b5b1461189a575f80fd5b600560075f8481526020019081526020015f20600b015f6101000a81548160ff021916908360078111156118d1576118d06124b1565b5b02179055507ff00b9a5725b80c54016f42114f6ed7792d22eecb116011c4afac29c57bef6c958260405161190591906124de565b60405180910390a15050565b611925816001611d5e90919063ffffffff16565b3373ffffffffffffffffffffffffffffffffffffffff167f28b26e7a3d20aedbc5f8f2ebf7da671c0491723a2b78f47a097b0e46dee0714260405160405180910390a250565b5f8073ffffffffffffffffffffffffffffffffffffffff168273ffffffffffffffffffffffffffffffffffffffff16036119a3575f80fd5b825f015f8373ffffffffffffffffffffffffffffffffffffffff1673ffffffffffffffffffffffffffffffffffffffff1681526020019081526020015f205f9054906101000a900460ff16905092915050565b611a0a816001611e0290919063ffffffff16565b8073ffffffffffffffffffffffffffffffffffffffff167fe3f5ed5f263f1f01764a96edfc7d025f511ec5f7d180e8816908b78bcf74f09860405160405180910390a250565b611a64816002611e0290919063ffffffff16565b8073ffffffffffffffffffffffffffffffffffffffff167f126174f6cf49c81cdb4a9214c6b8f037bef55b4ec31e4fc776cea2a1c8a88d5960405160405180910390a250565b611abe816002611d5e90919063ffffffff16565b8073ffffffffffffffffffffffffffffffffffffffff167fddbf200aa634dc3fb81cfd68583dd1040d1c751d335e1d86b631bde3e977fea860405160405180910390a250565b611b18816003611d5e90919063ffffffff16565b8073ffffffffffffffffffffffffffffffffffffffff167f2e0ded4123377a3c2bc9a26f1717655a129e2f20752924d42e730ec89c83dbd060405160405180910390a250565b611b72816003611e0290919063ffffffff16565b8073ffffffffffffffffffffffffffffffffffffffff167fa5e0f060af304ab17dd418c7927e3da3ae7868189bf387aee09ab179ccc572f260405160405180910390a250565b611bcc816004611d5e90919063ffffffff16565b8073ffffffffffffffffffffffffffffffffffffffff167f71ae26cad02663e3d92efd6ec56031a80d74a20c0ab4183faa8bf262261c9baa60405160405180910390a250565b611c26816004611e0290919063ffffffff16565b8073ffffffffffffffffffffffffffffffffffffffff167fdb7176e79cffef81cb01767dd0447a0b24bb72ca9778d4b245581086b2a7e6db60405160405180910390a250565b5f73ffffffffffffffffffffffffffffffffffffffff168173ffffffffffffffffffffffffffffffffffffffff1603611ca3575f80fd5b8073ffffffffffffffffffffffffffffffffffffffff165f8054906101000a900473ffffffffffffffffffffffffffffffffffffffff1673ffffffffffffffffffffffffffffffffffffffff167f5c486528ec3e3f0ea91181cff8116f02bfa350e03b8b6f12e00765adbb5af85c60405160405180910390a3805f806101000a81548173ffffffffffffffffffffffffffffffffffffffff021916908373ffffffffffffffffffffffffffffffffffffffff16021790555050565b5f73ffffffffffffffffffffffffffffffffffffffff168173ffffffffffffffffffffffffffffffffffffffff1603611d95575f80fd5b611d9f828261196b565b15611da8575f80fd5b6001825f015f8373ffffffffffffffffffffffffffffffffffffffff1673ffffffffffffffffffffffffffffffffffffffff1681526020019081526020015f205f6101000a81548160ff0219169083151502179055505050565b5f73ffffffffffffffffffffffffffffffffffffffff168173ffffffffffffffffffffffffffffffffffffffff1603611e39575f80fd5b611e43828261196b565b611e4b575f80fd5b5f825f015f8373ffffffffffffffffffffffffffffffffffffffff1673ffffffffffffffffffffffffffffffffffffffff1681526020019081526020015f205f6101000a81548160ff0219169083151502179055505050565b5f604051905090565b5f80fd5b5f80fd5b5f73ffffffffffffffffffffffffffffffffffffffff82169050919050565b5f611ede82611eb5565b9050919050565b611eee81611ed4565b8114611ef8575f80fd5b50565b5f81359050611f0981611ee5565b92915050565b5f60208284031215611f2457611f23611ead565b5b5f611f3184828501611efb565b91505092915050565b5f819050919050565b611f4c81611f3a565b8114611f56575f80fd5b50565b5f81359050611f6781611f43565b92915050565b5f8060408385031215611f8357611f82611ead565b5b5f611f9085828601611f59565b9250506020611fa185828601611f59565b9150509250929050565b5f60208284031215611fc057611fbf611ead565b5b5f611fcd84828501611f59565b91505092915050565b5f8115159050919050565b611fea81611fd6565b82525050565b5f6020820190506120035f830184611fe1565b92915050565b61201281611f3a565b82525050565b5f81519050919050565b5f82825260208201905092915050565b5f5b8381101561204f578082015181840152602081019050612034565b5f8484015250505050565b5f601f19601f8301169050919050565b5f61207482612018565b61207e8185612022565b935061208e818560208601612032565b6120978161205a565b840191505092915050565b6120ab81611ed4565b82525050565b5f610120820190506120c55f83018c612009565b6120d2602083018b612009565b6120df604083018a612009565b81810360608301526120f1818961206a565b90506121006080830188612009565b61210d60a0830187612009565b61211a60c08301866120a2565b61212760e08301856120a2565b6121356101008301846120a2565b9a9950505050505050505050565b5f610100820190506121575f83018b612009565b612164602083018a612009565b61217160408301896120a2565b61217e60608301886120a2565b8181036080830152612190818761206a565b905081810360a08301526121a4818661206a565b905081810360c08301526121b8818561206a565b905081810360e08301526121cc818461206a565b90509998505050505050505050565b5f6020820190506121ee5f8301846120a2565b92915050565b5f80fd5b5f80fd5b7f4e487b71000000000000000000000000000000000000000000000000000000005f52604160045260245ffd5b6122328261205a565b810181811067ffffffffffffffff82111715612251576122506121fc565b5b80604052505050565b5f612263611ea4565b905061226f8282612229565b919050565b5f67ffffffffffffffff82111561228e5761228d6121fc565b5b6122978261205a565b9050602081019050919050565b828183375f83830152505050565b5f6122c46122bf84612274565b61225a565b9050828152602081018484840111156122e0576122df6121f8565b5b6122eb8482856122a4565b509392505050565b5f82601f830112612307576123066121f4565b5b81356123178482602086016122b2565b91505092915050565b5f805f805f805f60e0888a03121561233b5761233a611ead565b5b5f6123488a828b01611f59565b97505060206123598a828b01611efb565b965050604088013567ffffffffffffffff81111561237a57612379611eb1565b5b6123868a828b016122f3565b955050606088013567ffffffffffffffff8111156123a7576123a6611eb1565b5b6123b38a828b016122f3565b945050608088013567ffffffffffffffff8111156123d4576123d3611eb1565b5b6123e08a828b016122f3565b93505060a088013567ffffffffffffffff81111561240157612400611eb1565b5b61240d8a828b016122f3565b92505060c088013567ffffffffffffffff81111561242e5761242d611eb1565b5b61243a8a828b016122f3565b91505092959891949750929550565b7f596f75206e65656420746f206265206120636f6e73756d6572000000000000005f82015250565b5f61247d601983612022565b915061248882612449565b602082019050919050565b5f6020820190508181035f8301526124aa81612471565b9050919050565b7f4e487b71000000000000000000000000000000000000000000000000000000005f52602160045260245ffd5b5f6020820190506124f15f830184612009565b92915050565b7f4e487b71000000000000000000000000000000000000000000000000000000005f52602260045260245ffd5b5f600282049050600182168061253b57607f821691505b60208210810361254e5761254d6124f7565b5b50919050565b7f4e487b71000000000000000000000000000000000000000000000000000000005f52601160045260245ffd5b5f61258b82611f3a565b915061259683611f3a565b92508282019050808211156125ae576125ad612554565b5b92915050565b5f819050815f5260205f209050919050565b5f6020601f8301049050919050565b5f82821b905092915050565b5f600883026126107fffffffffffffffffffffffffffffffffffffffffffffffffffffffffffffffff826125d5565b61261a86836125d5565b95508019841693508086168417925050509392505050565b5f819050919050565b5f61265561265061264b84611f3a565b612632565b611f3a565b9050919050565b5f819050919050565b61266e8361263b565b61268261267a8261265c565b8484546125e1565b825550505050565b5f90565b61269661268a565b6126a1818484612665565b505050565b5b818110156126c4576126b95f8261268e565b6001810190506126a7565b5050565b601f821115612709576126da816125b4565b6126e3846125c6565b810160208510156126f2578190505b6127066126fe856125c6565b8301826126a6565b50505b505050565b5f82821c905092915050565b5f6127295f198460080261270e565b1980831691505092915050565b5f612741838361271a565b9150826002028217905092915050565b61275a82612018565b67ffffffffffffffff811115612773576127726121fc565b5b61277d8254612524565b6127888282856126c8565b5f60209050601f8311600181146127b9575f84156127a7578287015190505b6127b18582612736565b865550612818565b601f1984166127c7866125b4565b5f5b828110156127ee578489015182556001820191506020850194506020810190506127c9565b8683101561280b5784890151612807601f89168261271a565b8355505b6001600288020188555050505b505050505050565b5f6040820190506128335f830185612009565b6128406020830184612009565b9392505050565b5f61285182611f3a565b915061285c83611f3a565b925082820390508181111561287457612873612554565b5b9291505056fea2646970667358221220696b6b0eda90d0d1a9775f55e11ed4a68b1fbe79912757451d0c2588b56258a064736f6c63430008150033",
  "immutableReferences": {},
  "source": "pragma solidity >=0.8.21;\r\n\r\nimport \"../coffeeaccesscontrol/ConsumerRole.sol\";\r\nimport \"../coffeeaccesscontrol/DistributorRole.sol\";\r\nimport \"../coffeeaccesscontrol/FarmerRole.sol\";\r\nimport \"../coffeeaccesscontrol/RetailerRole.sol\";\r\nimport \"../coffeecore/Ownable.sol\";\r\n\r\n\r\n// Define a contract 'Supplychain'\r\ncontract SupplyChain is Ownable, ConsumerRole, DistributorRole, FarmerRole, RetailerRole{\r\n\r\n  // Define 'owner'\r\n\r\n  // Define a variable called 'upc' for Universal Product Code (UPC)\r\n  uint  upc;\r\n\r\n  // Define a variable called 'sku' for Stock Keeping Unit (SKU)\r\n  uint  sku;\r\n\r\n  // Define a public mapping 'items' that maps the UPC to an Item.\r\n  mapping (uint => Item) items;\r\n\r\n  // Define a public mapping 'itemsHistory' that maps the UPC to an array of TxHash, \r\n  // that track its journey through the supply chain -- to be sent from DApp.\r\n  mapping (uint => string[]) itemsHistory; //   mapping (uint => string[]) itemsHistory;\r\n  \r\n  // Define enum 'State' with the following values:\r\n  enum State \r\n  { \r\n    Harvested,  // 0\r\n    Processed,  // 1\r\n    Packed,     // 2\r\n    ForSale,    // 3\r\n    Sold,       // 4\r\n    Shipped,    // 5\r\n    Received,   // 6\r\n    Purchased   // 7\r\n    }\r\n\r\n  State constant defaultState = State.Harvested;\r\n\r\n  // Define a struct 'Item' with the following fields:\r\n  struct Item {\r\n    uint    sku;  // Stock Keeping Unit (SKU)\r\n    uint    upc; // Universal Product Code (UPC), generated by the Farmer, goes on the package, can be verified by the Consumer\r\n    address ownerID;  // Metamask-Ethereum address of the current owner as the product moves through 8 stages\r\n    address originFarmerID; // Metamask-Ethereum address of the Farmer\r\n    string  originFarmName; // Farmer Name\r\n    string  originFarmInformation;  // Farmer Information\r\n    string  originFarmLatitude; // Farm Latitude\r\n    string  originFarmLongitude;  // Farm Longitude\r\n    uint    productID;  // Product ID potentially a combination of upc + sku\r\n    string  productNotes; // Product Notes\r\n    uint    productPrice; // Product Price\r\n    State   itemState;  // Product State as represented in the enum above\r\n    address distributorID;  // Metamask-Ethereum address of the Distributor\r\n    address retailerID; // Metamask-Ethereum address of the Retailer\r\n    address consumerID; // Metamask-Ethereum address of the Consumer\r\n  }\r\n\r\n  // Define 8 events with the same 8 state values and accept 'upc' as input argument\r\n  event Harvested(uint upc);\r\n  event Processed(uint upc);\r\n  event Packed(uint upc);\r\n  event ForSale(uint upc);\r\n  event Sold(uint upc, uint price);\r\n  event Shipped(uint upc);\r\n  event Received(uint upc);\r\n  event Purchased(uint upc);\r\n\r\n  // Define a modifer that verifies the Caller\r\n  modifier verifyCaller (address _address) {\r\n    require(msg.sender == _address); \r\n    _;\r\n  }\r\n\r\n  // Define a modifier that checks if the paid amount is sufficient to cover the price\r\n  modifier paidEnough(uint _price) { \r\n    require(msg.value >= _price); \r\n    _;\r\n  }\r\n  \r\n  // Define a modifier that checks the price and refunds the remaining balance\r\n  modifier checkValue(uint _upc) {\r\n    _;\r\n    uint _price = items[_upc].productPrice;\r\n    uint amountToReturn = msg.value - _price;\r\n    address payable walletToRefund = payable(msg.sender);\r\n    walletToRefund.transfer(amountToReturn);\r\n  }\r\n\r\n  // Define a modifier that checks if an item.state of a upc is Harvested\r\n  modifier harvested(uint _upc) {\r\n    require(items[_upc].itemState == State.Harvested);\r\n    _;\r\n  }\r\n\r\n  // Define a modifier that checks if an item.state of a upc is Processed\r\n  modifier processed(uint _upc) {\r\n    require(items[_upc].itemState == State.Processed);\r\n    _;\r\n  }\r\n  \r\n  // Define a modifier that checks if an item.state of a upc is Packed\r\n  modifier packed(uint _upc) {\r\n    require(items[_upc].itemState == State.Packed);\r\n    _;\r\n  }\r\n\r\n  // Define a modifier that checks if an item.state of a upc is ForSale\r\n  modifier forSale(uint _upc) {\r\n    require(items[_upc].itemState == State.ForSale);\r\n    _;\r\n  }\r\n\r\n  // Define a modifier that checks if an item.state of a upc is Sold\r\n  modifier sold(uint _upc) {\r\n      require(items[_upc].itemState == State.Sold);\r\n    _;\r\n  }\r\n  \r\n  // Define a modifier that checks if an item.state of a upc is Shipped\r\n  modifier shipped(uint _upc) {\r\n      require(items[_upc].itemState == State.Shipped);\r\n    _;\r\n  }\r\n\r\n  // Define a modifier that checks if an item.state of a upc is Received\r\n  modifier received(uint _upc) {\r\n      require(items[_upc].itemState == State.Received);\r\n    _;\r\n  }\r\n\r\n  // Define a modifier that checks if an item.state of a upc is Purchased\r\n  modifier purchased(uint _upc) {\r\n    require(items[_upc].itemState == State.Purchased);\r\n    _;\r\n  }\r\n\r\n  // In the constructor set 'owner' to the address that instantiated the contract\r\n  // and set 'sku' to 1\r\n  // and set 'upc' to 1\r\n  constructor() payable {\r\n    sku = 1;\r\n    upc = 1;\r\n  }\r\n\r\n\r\n  // Define a function 'harvestItem' that allows a farmer to mark an item 'Harvested'\r\n  function harvestItem(uint _upc, address _originFarmerID, string memory _originFarmName, string memory _originFarmInformation, \r\nstring memory _originFarmLatitude, string memory _originFarmLongitude, string memory  _productNotes) public onlyFarmer() {\r\n\r\n    //string memory productId = string.concat(Strings.toString(_upc),\"+\",Strings.toString(sku));\r\n    // Add the new item as part of Harvest\r\n    items[_upc].upc= _upc;\r\n    items[_upc].sku = sku;\r\n    items[_upc].productID = _upc + sku;\r\n    items[_upc].ownerID = _originFarmerID;\r\n    items[_upc].originFarmerID= _originFarmerID;\r\n    items[_upc].originFarmName= _originFarmName;\r\n    items[_upc].originFarmInformation= _originFarmInformation;\r\n    items[_upc].originFarmLatitude= _originFarmLatitude;\r\n    items[_upc].originFarmLongitude = _originFarmLongitude;\r\n    items[_upc].productNotes = _productNotes;\r\n    items[_upc].itemState = State.Harvested;\r\n    // Increment sku\r\n    sku = sku + 1;\r\n    // Emit the appropriate event\r\n    emit Harvested(_upc);\r\n    \r\n  }\r\n\r\n  // Define a function 'processtItem' that allows a farmer to mark an item 'Processed'\r\n  function processItem(uint _upc) public harvested(_upc) onlyFarmer(){ \r\n    // Call modifier to check if upc has passed previous supply chain stage and verify if the caller of this function is a farmer\r\n\r\n    items[_upc].itemState = State.Processed; // Update the appropriate fields\r\n    \r\n    emit Processed(_upc);// Emit the appropriate event\r\n    \r\n  }\r\n\r\n  // Define a function 'packItem' that allows a farmer to mark an item 'Packed'\r\n  function packItem(uint _upc) public processed(_upc) onlyFarmer() { \r\n    // Update the appropriate fields\r\n    items[_upc].itemState = State.Packed;\r\n    emit Packed(_upc);// Emit the appropriate event\r\n    \r\n  }\r\n\r\n  // Define a function 'sellItem' that allows a farmer to mark an item 'ForSale'\r\n  function sellItem(uint _upc, uint _price) public packed(_upc) onlyFarmer() \r\n  {\r\n    // Update the appropriate fields\r\n    items[_upc].productPrice = _price;\r\n    items[_upc].itemState = State.ForSale;\r\n    emit ForSale(_upc);// Emit the appropriate event\r\n    \r\n  }\r\n\r\n  // Define a function 'buyItem' that allows the disributor to mark an item 'Sold'\r\n  // Use the above defined modifiers to check if the item is available for sale, if the buyer has paid enough, \r\n  // and any excess ether sent is refunded back to the buyer\r\n  function buyItem(uint _upc) public payable forSale(_upc) paidEnough(items[_upc].productPrice) checkValue(_upc) onlyDistributor() {\r\n  // Call modifier to check if upc has passed previous supply chain stage  \r\n   // Call modifer to check if buyer has paid enough\r\n  // Call modifer to send any excess ether back to buyer \r\n  // Call modifier so that only distributor can call this function\r\n    address payable farmerWallet = payable(items[_upc].originFarmerID);\r\n    items[_upc].ownerID = msg.sender;// Update the appropriate fields - ownerID, distributorID, itemState\r\n    items[_upc].distributorID = msg.sender;\r\n    items[_upc].itemState = State.Sold;\r\n    // Transfer money to farmer\r\n    farmerWallet.transfer(items[_upc].productPrice);\r\n    emit Sold(_upc, items[_upc].productPrice);// emit the appropriate event\r\n    \r\n  }\r\n\r\n  // Define a function 'shipItem' that allows the distributor to mark an item 'Shipped'\r\n  // Use the above modifers to check if the item is sold\r\n  function shipItem(uint _upc) public onlyDistributor() sold(_upc)\r\n  {\r\n    // Update the appropriate fields \r\n    items[_upc].itemState = State.Shipped; \r\n    emit Shipped(_upc);// Emit the appropriate event\r\n    \r\n  }\r\n\r\n  // Define a function 'receiveItem' that allows the retailer to mark an item 'Received'\r\n  // Use the above modifiers to check if the item is shipped\r\n  function receiveItem(uint _upc) public shipped(_upc) onlyRetailer()\r\n    {\r\n    items[_upc].ownerID = msg.sender;\r\n    items[_upc].retailerID = msg.sender;\r\n    items[_upc].itemState = State.Received;// Update the appropriate fields - ownerID, retailerID, itemState\r\n    \r\n    emit Received(_upc);// Emit the appropriate event\r\n    \r\n  }\r\n\r\n  // Define a function 'purchaseItem' that allows the consumer to mark an item 'Purchased'\r\n  // Use the above modifiers to check if the item is received\r\n  function purchaseItem(uint _upc) public received(_upc) onlyConsumer()\r\n    {\r\n    // Update the appropriate fields - ownerID, consumerID, itemState\r\n    items[_upc].ownerID = msg.sender;\r\n    items[_upc].consumerID = msg.sender;\r\n    items[_upc].itemState = State.Purchased;\r\n    \r\n    emit Purchased(_upc);// Emit the appropriate event\r\n    \r\n  }\r\n\r\n  // Define a function 'fetchItemBufferOne' that fetches the data\r\n  function fetchItemBufferOne(uint _upc) public view returns \r\n  (\r\n  uint    itemSKU,\r\n  uint    itemUPC,\r\n  address ownerID,\r\n  address originFarmerID,\r\n  string memory originFarmName,\r\n  string memory originFarmInformation,\r\n  string memory originFarmLatitude,\r\n  string memory originFarmLongitude\r\n  ) \r\n  {\r\n  // Assign values to the 8 parameters\r\n  itemSKU =items[_upc].sku;\r\n  itemUPC = items[_upc].upc;\r\n  ownerID = items[_upc].ownerID;\r\n  originFarmerID = items[_upc].originFarmerID;\r\n  originFarmName = items[_upc].originFarmName;\r\n  originFarmInformation = items[_upc].originFarmInformation;\r\n  originFarmLatitude =items[_upc].originFarmLatitude; \r\n  originFarmLongitude = items[_upc].originFarmLongitude;\r\n  return \r\n  (\r\n  itemSKU,\r\n  itemUPC,\r\n  ownerID,\r\n  originFarmerID,\r\n  originFarmName,\r\n  originFarmInformation,\r\n  originFarmLatitude,\r\n  originFarmLongitude\r\n  );\r\n  }\r\n\r\n\r\n  // Define a function 'fetchItemBufferTwo' that fetches the data\r\n  function fetchItemBufferTwo(uint _upc) public view returns \r\n  (\r\n  uint    itemSKU,\r\n  uint    itemUPC,\r\n  uint    productID,\r\n  string memory productNotes,\r\n  uint    productPrice,\r\n  uint    itemState,\r\n  address distributorID,\r\n  address retailerID,\r\n  address consumerID\r\n  ) \r\n  {\r\n    // Assign values to the 9 parameters\r\n  itemSKU = items[_upc].sku;\r\n  itemUPC = items[_upc].upc;\r\n  productID = items[_upc].productID;\r\n  productNotes = items[_upc].productNotes;\r\n  productPrice = items[_upc].productPrice;\r\n  itemState = uint(items[_upc].itemState);\r\n  distributorID = items[_upc].distributorID;\r\n  retailerID = items[_upc].retailerID;\r\n  consumerID = items[_upc].consumerID;\r\n    \r\n  return \r\n  (\r\n  itemSKU,\r\n  itemUPC,\r\n  productID,\r\n  productNotes,\r\n  productPrice,\r\n  itemState,\r\n  distributorID,\r\n  retailerID,\r\n  consumerID\r\n  );\r\n  }\r\n\r\n /* function addItemsHistory(uint _upc, string memory TX) public \r\n  {\r\n    uint status = uint(items[_upc].itemState); //get the TX step\r\n    itemsHistory[_upc][status] = TX ;\r\n  }\r\n  function getItemsHistory(uint _upc) public view returns ( string[] memory )\r\n  {\r\n    return itemsHistory[_upc];\r\n  } */\r\n}\r\n",
  "sourcePath": "C:\\Users\\anura\\OneDrive\\Desktop\\SupplyChain6.0\\SupplyChainTracker\\contracts\\coffeebase\\SupplyChain.sol",
  "compiler": {
    "name": "solc",
    "version": "0.8.21+commit.d9974bed.Emscripten.clang"
  },
  "schemaVersion": "3.4.16",
  "updatedAt": "2023-10-09T15:21:24.504Z",
  "devdoc": {
    "kind": "dev",
    "methods": {},
    "version": 1
  },
  "userdoc": {
    "kind": "user",
    "methods": {
      "isOwner()": {
        "notice": "Check if the calling address is the owner of the contract"
      },
      "owner()": {
        "notice": "Look up the address of the owner"
      },
      "renounceOwnership()": {
        "notice": "Define a function to renounce ownerhip"
      },
      "transferOwnership(address)": {
        "notice": "Define a public function to transfer ownership"
      }
    },
    "version": 1
  }
}